{
  "_format": "hh-sol-artifact-1",
  "contractName": "NFT",
  "sourceName": "contracts/NFT.sol",
  "abi": [
    {
      "inputs": [],
      "stateMutability": "nonpayable",
      "type": "constructor"
    },
    {
      "inputs": [],
      "name": "notSending",
      "type": "error"
    },
    {
      "anonymous": false,
      "inputs": [
        {
          "indexed": true,
          "internalType": "address",
          "name": "account",
          "type": "address"
        },
        {
          "indexed": true,
          "internalType": "address",
          "name": "operator",
          "type": "address"
        },
        {
          "indexed": false,
          "internalType": "bool",
          "name": "approved",
          "type": "bool"
        }
      ],
      "name": "ApprovalForAll",
      "type": "event"
    },
    {
      "anonymous": false,
      "inputs": [
        {
          "indexed": true,
          "internalType": "address",
          "name": "previousOwner",
          "type": "address"
        },
        {
          "indexed": true,
          "internalType": "address",
          "name": "newOwner",
          "type": "address"
        }
      ],
      "name": "OwnershipTransferred",
      "type": "event"
    },
    {
      "anonymous": false,
      "inputs": [
        {
          "indexed": true,
          "internalType": "address",
          "name": "operator",
          "type": "address"
        },
        {
          "indexed": true,
          "internalType": "address",
          "name": "from",
          "type": "address"
        },
        {
          "indexed": true,
          "internalType": "address",
          "name": "to",
          "type": "address"
        },
        {
          "indexed": false,
          "internalType": "uint256[]",
          "name": "ids",
          "type": "uint256[]"
        },
        {
          "indexed": false,
          "internalType": "uint256[]",
          "name": "values",
          "type": "uint256[]"
        }
      ],
      "name": "TransferBatch",
      "type": "event"
    },
    {
      "anonymous": false,
      "inputs": [
        {
          "indexed": true,
          "internalType": "address",
          "name": "operator",
          "type": "address"
        },
        {
          "indexed": true,
          "internalType": "address",
          "name": "from",
          "type": "address"
        },
        {
          "indexed": true,
          "internalType": "address",
          "name": "to",
          "type": "address"
        },
        {
          "indexed": false,
          "internalType": "uint256",
          "name": "id",
          "type": "uint256"
        },
        {
          "indexed": false,
          "internalType": "uint256",
          "name": "value",
          "type": "uint256"
        }
      ],
      "name": "TransferSingle",
      "type": "event"
    },
    {
      "anonymous": false,
      "inputs": [
        {
          "indexed": false,
          "internalType": "string",
          "name": "value",
          "type": "string"
        },
        {
          "indexed": true,
          "internalType": "uint256",
          "name": "id",
          "type": "uint256"
        }
      ],
      "name": "URI",
      "type": "event"
    },
    {
      "inputs": [
        {
          "internalType": "address",
          "name": "account",
          "type": "address"
        },
        {
          "internalType": "uint256",
          "name": "id",
          "type": "uint256"
        }
      ],
      "name": "balanceOf",
      "outputs": [
        {
          "internalType": "uint256",
          "name": "",
          "type": "uint256"
        }
      ],
      "stateMutability": "view",
      "type": "function"
    },
    {
      "inputs": [
        {
          "internalType": "address[]",
          "name": "accounts",
          "type": "address[]"
        },
        {
          "internalType": "uint256[]",
          "name": "ids",
          "type": "uint256[]"
        }
      ],
      "name": "balanceOfBatch",
      "outputs": [
        {
          "internalType": "uint256[]",
          "name": "",
          "type": "uint256[]"
        }
      ],
      "stateMutability": "view",
      "type": "function"
    },
    {
      "inputs": [],
      "name": "buyBUSDTokens",
      "outputs": [],
      "stateMutability": "payable",
      "type": "function"
    },
    {
      "inputs": [
        {
          "internalType": "uint256",
          "name": "tokenId",
          "type": "uint256"
        }
      ],
      "name": "buyNftToken",
      "outputs": [],
      "stateMutability": "nonpayable",
      "type": "function"
    },
    {
      "inputs": [
        {
          "internalType": "address",
          "name": "BUSDAddress",
          "type": "address"
        }
      ],
      "name": "initBUSDAddress",
      "outputs": [],
      "stateMutability": "nonpayable",
      "type": "function"
    },
    {
      "inputs": [
        {
          "internalType": "address",
          "name": "account",
          "type": "address"
        },
        {
          "internalType": "address",
          "name": "operator",
          "type": "address"
        }
      ],
      "name": "isApprovedForAll",
      "outputs": [
        {
          "internalType": "bool",
          "name": "",
          "type": "bool"
        }
      ],
      "stateMutability": "view",
      "type": "function"
    },
    {
      "inputs": [
        {
          "internalType": "uint256",
          "name": "id",
          "type": "uint256"
        },
        {
          "internalType": "uint256",
          "name": "amount",
          "type": "uint256"
        },
        {
          "internalType": "uint256",
          "name": "price",
          "type": "uint256"
        },
        {
          "internalType": "string",
          "name": "_uri",
          "type": "string"
        }
      ],
      "name": "mint",
      "outputs": [],
      "stateMutability": "nonpayable",
      "type": "function"
    },
    {
      "inputs": [],
      "name": "owner",
      "outputs": [
        {
          "internalType": "address",
          "name": "",
          "type": "address"
        }
      ],
      "stateMutability": "view",
      "type": "function"
    },
    {
      "inputs": [
        {
          "internalType": "uint256",
          "name": "",
          "type": "uint256"
        }
      ],
      "name": "provenanceHash",
      "outputs": [
        {
          "internalType": "string",
          "name": "",
          "type": "string"
        }
      ],
      "stateMutability": "view",
      "type": "function"
    },
    {
      "inputs": [],
      "name": "renounceOwnership",
      "outputs": [],
      "stateMutability": "nonpayable",
      "type": "function"
    },
    {
      "inputs": [
        {
          "internalType": "address",
          "name": "from",
          "type": "address"
        },
        {
          "internalType": "address",
          "name": "to",
          "type": "address"
        },
        {
          "internalType": "uint256[]",
          "name": "ids",
          "type": "uint256[]"
        },
        {
          "internalType": "uint256[]",
          "name": "amounts",
          "type": "uint256[]"
        },
        {
          "internalType": "bytes",
          "name": "data",
          "type": "bytes"
        }
      ],
      "name": "safeBatchTransferFrom",
      "outputs": [],
      "stateMutability": "nonpayable",
      "type": "function"
    },
    {
      "inputs": [
        {
          "internalType": "address",
          "name": "from",
          "type": "address"
        },
        {
          "internalType": "address",
          "name": "to",
          "type": "address"
        },
        {
          "internalType": "uint256",
          "name": "id",
          "type": "uint256"
        },
        {
          "internalType": "uint256",
          "name": "amount",
          "type": "uint256"
        },
        {
          "internalType": "bytes",
          "name": "data",
          "type": "bytes"
        }
      ],
      "name": "safeTransferFrom",
      "outputs": [],
      "stateMutability": "nonpayable",
      "type": "function"
    },
    {
      "inputs": [
        {
          "internalType": "address",
          "name": "operator",
          "type": "address"
        },
        {
          "internalType": "bool",
          "name": "approved",
          "type": "bool"
        }
      ],
      "name": "setApprovalForAll",
      "outputs": [],
      "stateMutability": "nonpayable",
      "type": "function"
    },
    {
      "inputs": [
        {
          "internalType": "address",
          "name": "",
          "type": "address"
        }
      ],
      "name": "stopBuy",
      "outputs": [
        {
          "internalType": "bool",
          "name": "",
          "type": "bool"
        }
      ],
      "stateMutability": "view",
      "type": "function"
    },
    {
      "inputs": [
        {
          "internalType": "bytes4",
          "name": "interfaceId",
          "type": "bytes4"
        }
      ],
      "name": "supportsInterface",
      "outputs": [
        {
          "internalType": "bool",
          "name": "",
          "type": "bool"
        }
      ],
      "stateMutability": "view",
      "type": "function"
    },
    {
      "inputs": [
        {
          "internalType": "uint256",
          "name": "",
          "type": "uint256"
        }
      ],
      "name": "tokenPrices",
      "outputs": [
        {
          "internalType": "uint256",
          "name": "",
          "type": "uint256"
        }
      ],
      "stateMutability": "view",
      "type": "function"
    },
    {
      "inputs": [
        {
          "internalType": "address",
          "name": "newOwner",
          "type": "address"
        }
      ],
      "name": "transferOwnership",
      "outputs": [],
      "stateMutability": "nonpayable",
      "type": "function"
    },
    {
      "inputs": [
        {
          "internalType": "uint256",
          "name": "_tokenId",
          "type": "uint256"
        }
      ],
      "name": "uri",
      "outputs": [
        {
          "internalType": "string",
          "name": "",
          "type": "string"
        }
      ],
      "stateMutability": "view",
      "type": "function"
    },
    {
      "inputs": [],
      "name": "withdraw",
      "outputs": [],
      "stateMutability": "nonpayable",
      "type": "function"
    },
    {
      "stateMutability": "payable",
      "type": "receive"
    }
  ],
  "bytecode": "0x60806040523480156200001157600080fd5b506040518060200160405280600081525062000033816200005a60201b60201c565b5062000054620000486200007660201b60201c565b6200007e60201b60201c565b62000259565b80600290805190602001906200007292919062000144565b5050565b600033905090565b6000600360009054906101000a900473ffffffffffffffffffffffffffffffffffffffff16905081600360006101000a81548173ffffffffffffffffffffffffffffffffffffffff021916908373ffffffffffffffffffffffffffffffffffffffff1602179055508173ffffffffffffffffffffffffffffffffffffffff168173ffffffffffffffffffffffffffffffffffffffff167f8be0079c531659141344cd1fd0a4f28419497f9722a3daafe3b4186f6b6457e060405160405180910390a35050565b8280546200015290620001f4565b90600052602060002090601f016020900481019282620001765760008555620001c2565b82601f106200019157805160ff1916838001178555620001c2565b82800160010185558215620001c2579182015b82811115620001c1578251825591602001919060010190620001a4565b5b509050620001d19190620001d5565b5090565b5b80821115620001f0576000816000905550600101620001d6565b5090565b600060028204905060018216806200020d57607f821691505b602082108114156200022457620002236200022a565b5b50919050565b7f4e487b7100000000000000000000000000000000000000000000000000000000600052602260045260246000fd5b61412b80620002696000396000f3fe6080604052600436106101175760003560e01c80638da5cb5b116100a0578063da8cc6e811610064578063da8cc6e814610398578063e5afe3e6146103c1578063e985e9c5146103fe578063f242432a1461043b578063f2fde38b146104645761011e565b80638da5cb5b146102d457806398b33fc0146102ff5780639fcda3781461033c578063a22cb46514610346578063cdf39db01461036f5761011e565b80632eb2c2d6116100e75780632eb2c2d6146102175780633ccfd60b146102405780634e1273f41461025757806357e7aba714610294578063715018a6146102bd5761011e565b8062fdd58e1461012357806301ffc9a7146101605780630e89341c1461019d57806317088a63146101da5761011e565b3661011e57005b600080fd5b34801561012f57600080fd5b5061014a60048036038101906101459190612d01565b61048d565b604051610157919061370c565b60405180910390f35b34801561016c57600080fd5b5061018760048036038101906101829190612dd2565b610556565b60405161019491906134af565b60405180910390f35b3480156101a957600080fd5b506101c460048036038101906101bf9190612e24565b610638565b6040516101d191906134ca565b60405180910390f35b3480156101e657600080fd5b5061020160048036038101906101fc9190612e24565b6106dd565b60405161020e91906134ca565b60405180910390f35b34801561022357600080fd5b5061023e60048036038101906102399190612b77565b61077d565b005b34801561024c57600080fd5b5061025561081e565b005b34801561026357600080fd5b5061027e60048036038101906102799190612d3d565b610a7c565b60405161028b9190613456565b60405180910390f35b3480156102a057600080fd5b506102bb60048036038101906102b69190612e76565b610c2d565b005b3480156102c957600080fd5b506102d2610d78565b005b3480156102e057600080fd5b506102e9610d8c565b6040516102f69190613319565b60405180910390f35b34801561030b57600080fd5b5061032660048036038101906103219190612b12565b610db6565b60405161033391906134af565b60405180910390f35b610344610dd6565b005b34801561035257600080fd5b5061036d60048036038101906103689190612cc5565b610f06565b005b34801561037b57600080fd5b5061039660048036038101906103919190612b12565b610f1c565b005b3480156103a457600080fd5b506103bf60048036038101906103ba9190612e24565b610f68565b005b3480156103cd57600080fd5b506103e860048036038101906103e39190612e24565b611213565b6040516103f5919061370c565b60405180910390f35b34801561040a57600080fd5b5061042560048036038101906104209190612b3b565b61122b565b60405161043291906134af565b60405180910390f35b34801561044757600080fd5b50610462600480360381019061045d9190612c36565b6112bf565b005b34801561047057600080fd5b5061048b60048036038101906104869190612b12565b611360565b005b60008073ffffffffffffffffffffffffffffffffffffffff168373ffffffffffffffffffffffffffffffffffffffff1614156104fe576040517f08c379a00000000000000000000000000000000000000000000000000000000081526004016104f59061354c565b60405180910390fd5b60008083815260200190815260200160002060008473ffffffffffffffffffffffffffffffffffffffff1673ffffffffffffffffffffffffffffffffffffffff16815260200190815260200160002054905092915050565b60007fd9b67a26000000000000000000000000000000000000000000000000000000007bffffffffffffffffffffffffffffffffffffffffffffffffffffffff1916827bffffffffffffffffffffffffffffffffffffffffffffffffffffffff1916148061062157507f0e89341c000000000000000000000000000000000000000000000000000000007bffffffffffffffffffffffffffffffffffffffffffffffffffffffff1916827bffffffffffffffffffffffffffffffffffffffffffffffffffffffff1916145b806106315750610630826113e4565b5b9050919050565b6060600660008381526020019081526020016000208054610658906139b7565b80601f0160208091040260200160405190810160405280929190818152602001828054610684906139b7565b80156106d15780601f106106a6576101008083540402835291602001916106d1565b820191906000526020600020905b8154815290600101906020018083116106b457829003601f168201915b50505050509050919050565b600660205280600052604060002060009150905080546106fc906139b7565b80601f0160208091040260200160405190810160405280929190818152602001828054610728906139b7565b80156107755780601f1061074a57610100808354040283529160200191610775565b820191906000526020600020905b81548152906001019060200180831161075857829003601f168201915b505050505081565b61078561144e565b73ffffffffffffffffffffffffffffffffffffffff168573ffffffffffffffffffffffffffffffffffffffff1614806107cb57506107ca856107c561144e565b61122b565b5b61080a576040517f08c379a00000000000000000000000000000000000000000000000000000000081526004016108019061356c565b60405180910390fd5b6108178585858585611456565b5050505050565b6108266117c4565b6000600560009054906101000a900473ffffffffffffffffffffffffffffffffffffffff1673ffffffffffffffffffffffffffffffffffffffff166370a08231306040518263ffffffff1660e01b81526004016108839190613319565b60206040518083038186803b15801561089b57600080fd5b505afa1580156108af573d6000803e3d6000fd5b505050506040513d601f19601f820116820180604052508101906108d39190612e4d565b11610913576040517f08c379a000000000000000000000000000000000000000000000000000000000815260040161090a9061358c565b60405180910390fd5b6000600560009054906101000a900473ffffffffffffffffffffffffffffffffffffffff1673ffffffffffffffffffffffffffffffffffffffff166370a08231306040518263ffffffff1660e01b81526004016109709190613319565b60206040518083038186803b15801561098857600080fd5b505afa15801561099c573d6000803e3d6000fd5b505050506040513d601f19601f820116820180604052508101906109c09190612e4d565b9050600560009054906101000a900473ffffffffffffffffffffffffffffffffffffffff1673ffffffffffffffffffffffffffffffffffffffff1663a9059cbb610a08610d8c565b836040518363ffffffff1660e01b8152600401610a2692919061342d565b602060405180830381600087803b158015610a4057600080fd5b505af1158015610a54573d6000803e3d6000fd5b505050506040513d601f19601f82011682018060405250810190610a789190612da9565b5050565b60608151835114610ac2576040517f08c379a0000000000000000000000000000000000000000000000000000000008152600401610ab99061366c565b60405180910390fd5b6000835167ffffffffffffffff811115610b05577f4e487b7100000000000000000000000000000000000000000000000000000000600052604160045260246000fd5b604051908082528060200260200182016040528015610b335781602001602082028036833780820191505090505b50905060005b8451811015610c2257610bcc858281518110610b7e577f4e487b7100000000000000000000000000000000000000000000000000000000600052603260045260246000fd5b6020026020010151858381518110610bbf577f4e487b7100000000000000000000000000000000000000000000000000000000600052603260045260246000fd5b602002602001015161048d565b828281518110610c05577f4e487b7100000000000000000000000000000000000000000000000000000000600052603260045260246000fd5b60200260200101818152505080610c1b90613a1a565b9050610b39565b508091505092915050565b610c356117c4565b6007600085815260200190815260200160002060009054906101000a900460ff1615610c96576040517f08c379a0000000000000000000000000000000000000000000000000000000008152600401610c8d9061368c565b60405180910390fd5b60016007600086815260200190815260200160002060006101000a81548160ff0219169083151502179055506000610ccd85611842565b90508181604051602001610ce29291906132df565b604051602081830303815290604052600660008781526020019081526020016000209080519060200190610d179291906127e0565b50826008600087815260200190815260200160002081905550610d713386866040518060400160405280600481526020017f3078303000000000000000000000000000000000000000000000000000000000815250611966565b5050505050565b610d806117c4565b610d8a6000611b17565b565b6000600360009054906101000a900473ffffffffffffffffffffffffffffffffffffffff16905090565b60096020528060005260406000206000915054906101000a900460ff1681565b670de0b6b3a76400003414610e20576040517f08c379a0000000000000000000000000000000000000000000000000000000008152600401610e179061362c565b60405180910390fd5b600069152d02c7e14af68000009050600560009054906101000a900473ffffffffffffffffffffffffffffffffffffffff1673ffffffffffffffffffffffffffffffffffffffff166323b872dd600560009054906101000a900473ffffffffffffffffffffffffffffffffffffffff1633846040518463ffffffff1660e01b8152600401610eb09392919061339c565b602060405180830381600087803b158015610eca57600080fd5b505af1158015610ede573d6000803e3d6000fd5b505050506040513d601f19601f82011682018060405250810190610f029190612da9565b5050565b610f18610f1161144e565b8383611bdd565b5050565b610f246117c4565b80600560006101000a81548173ffffffffffffffffffffffffffffffffffffffff021916908373ffffffffffffffffffffffffffffffffffffffff16021790555050565b60001515600960003373ffffffffffffffffffffffffffffffffffffffff1673ffffffffffffffffffffffffffffffffffffffff16815260200190815260200160002060009054906101000a900460ff16151514610ffb576040517f08c379a0000000000000000000000000000000000000000000000000000000008152600401610ff2906135cc565b60405180910390fd5b6008600082815260200190815260200160002054600560009054906101000a900473ffffffffffffffffffffffffffffffffffffffff1673ffffffffffffffffffffffffffffffffffffffff166370a08231336040518263ffffffff1660e01b815260040161106a9190613319565b60206040518083038186803b15801561108257600080fd5b505afa158015611096573d6000803e3d6000fd5b505050506040513d601f19601f820116820180604052508101906110ba9190612e4d565b10156110fb576040517f08c379a00000000000000000000000000000000000000000000000000000000081526004016110f2906134ec565b60405180910390fd5b600060086000838152602001908152602001600020549050600560009054906101000a900473ffffffffffffffffffffffffffffffffffffffff1673ffffffffffffffffffffffffffffffffffffffff166323b872dd3330846040518463ffffffff1660e01b81526004016111729392919061339c565b602060405180830381600087803b15801561118c57600080fd5b505af11580156111a0573d6000803e3d6000fd5b505050506040513d601f19601f820116820180604052508101906111c49190612da9565b5061120f6111d0610d8c565b338460016040518060400160405280600481526020017f3078303000000000000000000000000000000000000000000000000000000000815250611d4a565b5050565b60086020528060005260406000206000915090505481565b6000600160008473ffffffffffffffffffffffffffffffffffffffff1673ffffffffffffffffffffffffffffffffffffffff16815260200190815260200160002060008373ffffffffffffffffffffffffffffffffffffffff1673ffffffffffffffffffffffffffffffffffffffff16815260200190815260200160002060009054906101000a900460ff16905092915050565b6112c761144e565b73ffffffffffffffffffffffffffffffffffffffff168573ffffffffffffffffffffffffffffffffffffffff16148061130d575061130c8561130761144e565b61122b565b5b61134c576040517f08c379a00000000000000000000000000000000000000000000000000000000081526004016113439061356c565b60405180910390fd5b6113598585858585611d4a565b5050505050565b6113686117c4565b600073ffffffffffffffffffffffffffffffffffffffff168173ffffffffffffffffffffffffffffffffffffffff1614156113d8576040517f08c379a00000000000000000000000000000000000000000000000000000000081526004016113cf9061352c565b60405180910390fd5b6113e181611b17565b50565b60007f01ffc9a7000000000000000000000000000000000000000000000000000000007bffffffffffffffffffffffffffffffffffffffffffffffffffffffff1916827bffffffffffffffffffffffffffffffffffffffffffffffffffffffff1916149050919050565b600033905090565b815183511461149a576040517f08c379a0000000000000000000000000000000000000000000000000000000008152600401611491906136ac565b60405180910390fd5b600073ffffffffffffffffffffffffffffffffffffffff168473ffffffffffffffffffffffffffffffffffffffff16141561150a576040517f08c379a0000000000000000000000000000000000000000000000000000000008152600401611501906135ac565b60405180910390fd5b600061151461144e565b9050611524818787878787611e46565b60005b845181101561172157600085828151811061156b577f4e487b7100000000000000000000000000000000000000000000000000000000600052603260045260246000fd5b6020026020010151905060008583815181106115b0577f4e487b7100000000000000000000000000000000000000000000000000000000600052603260045260246000fd5b60200260200101519050600080600084815260200190815260200160002060008b73ffffffffffffffffffffffffffffffffffffffff1673ffffffffffffffffffffffffffffffffffffffff16815260200190815260200160002054905081811015611651576040517f08c379a0000000000000000000000000000000000000000000000000000000008152600401611648906135ec565b60405180910390fd5b81810360008085815260200190815260200160002060008c73ffffffffffffffffffffffffffffffffffffffff1673ffffffffffffffffffffffffffffffffffffffff168152602001908152602001600020819055508160008085815260200190815260200160002060008b73ffffffffffffffffffffffffffffffffffffffff1673ffffffffffffffffffffffffffffffffffffffff168152602001908152602001600020600082825461170691906138ab565b925050819055505050508061171a90613a1a565b9050611527565b508473ffffffffffffffffffffffffffffffffffffffff168673ffffffffffffffffffffffffffffffffffffffff168273ffffffffffffffffffffffffffffffffffffffff167f4a39dc06d4c0dbc64b70af90fd698a233a518aa5d07e595d983b8c0526c8f7fb8787604051611798929190613478565b60405180910390a46117ae818787878787611e4e565b6117bc818787878787611e56565b505050505050565b6117cc61144e565b73ffffffffffffffffffffffffffffffffffffffff166117ea610d8c565b73ffffffffffffffffffffffffffffffffffffffff1614611840576040517f08c379a00000000000000000000000000000000000000000000000000000000081526004016118379061360c565b60405180910390fd5b565b6060600060016118518461203d565b01905060008167ffffffffffffffff811115611896577f4e487b7100000000000000000000000000000000000000000000000000000000600052604160045260246000fd5b6040519080825280601f01601f1916602001820160405280156118c85781602001600182028036833780820191505090505b509050600082602001820190505b60011561195b578080600190039150507f3031323334353637383961626364656600000000000000000000000000000000600a86061a8153600a8581611945577f4e487b7100000000000000000000000000000000000000000000000000000000600052601260045260246000fd5b04945060008514156119565761195b565b6118d6565b819350505050919050565b600073ffffffffffffffffffffffffffffffffffffffff168473ffffffffffffffffffffffffffffffffffffffff1614156119d6576040517f08c379a00000000000000000000000000000000000000000000000000000000081526004016119cd906136cc565b60405180910390fd5b60006119e061144e565b905060006119ed85612274565b905060006119fa85612274565b9050611a0b83600089858589611e46565b8460008088815260200190815260200160002060008973ffffffffffffffffffffffffffffffffffffffff1673ffffffffffffffffffffffffffffffffffffffff1681526020019081526020016000206000828254611a6a91906138ab565b925050819055508673ffffffffffffffffffffffffffffffffffffffff16600073ffffffffffffffffffffffffffffffffffffffff168473ffffffffffffffffffffffffffffffffffffffff167fc3d58168c5ae7397731d063d5bbf3d657854427343f4c083240f7aacaa2d0f628989604051611ae8929190613727565b60405180910390a4611aff83600089858589611e4e565b611b0e8360008989898961233a565b50505050505050565b6000600360009054906101000a900473ffffffffffffffffffffffffffffffffffffffff16905081600360006101000a81548173ffffffffffffffffffffffffffffffffffffffff021916908373ffffffffffffffffffffffffffffffffffffffff1602179055508173ffffffffffffffffffffffffffffffffffffffff168173ffffffffffffffffffffffffffffffffffffffff167f8be0079c531659141344cd1fd0a4f28419497f9722a3daafe3b4186f6b6457e060405160405180910390a35050565b8173ffffffffffffffffffffffffffffffffffffffff168373ffffffffffffffffffffffffffffffffffffffff161415611c4c576040517f08c379a0000000000000000000000000000000000000000000000000000000008152600401611c439061364c565b60405180910390fd5b80600160008573ffffffffffffffffffffffffffffffffffffffff1673ffffffffffffffffffffffffffffffffffffffff16815260200190815260200160002060008473ffffffffffffffffffffffffffffffffffffffff1673ffffffffffffffffffffffffffffffffffffffff16815260200190815260200160002060006101000a81548160ff0219169083151502179055508173ffffffffffffffffffffffffffffffffffffffff168373ffffffffffffffffffffffffffffffffffffffff167f17307eab39ab6107e8899845ad3d59bd9653f200f220920489ca2b5937696c3183604051611d3d91906134af565b60405180910390a3505050565b60001515600960008673ffffffffffffffffffffffffffffffffffffffff1673ffffffffffffffffffffffffffffffffffffffff16815260200190815260200160002060009054906101000a900460ff1615151415611e0d576001600960008673ffffffffffffffffffffffffffffffffffffffff1673ffffffffffffffffffffffffffffffffffffffff16815260200190815260200160002060006101000a81548160ff021916908315150217905550611e088585858585612521565b611e3f565b6040517ffd83e4a100000000000000000000000000000000000000000000000000000000815260040160405180910390fd5b5050505050565b505050505050565b505050505050565b611e758473ffffffffffffffffffffffffffffffffffffffff166127bd565b15612035578373ffffffffffffffffffffffffffffffffffffffff1663bc197c8187878686866040518663ffffffff1660e01b8152600401611ebb959493929190613334565b602060405180830381600087803b158015611ed557600080fd5b505af1925050508015611f0657506040513d601f19601f82011682018060405250810190611f039190612dfb565b60015b611fac57611f12613af0565b806308c379a01415611f6f5750611f27614003565b80611f325750611f71565b806040517f08c379a0000000000000000000000000000000000000000000000000000000008152600401611f6691906134ca565b60405180910390fd5b505b6040517f08c379a0000000000000000000000000000000000000000000000000000000008152600401611fa3906136ec565b60405180910390fd5b63bc197c8160e01b7bffffffffffffffffffffffffffffffffffffffffffffffffffffffff1916817bffffffffffffffffffffffffffffffffffffffffffffffffffffffff191614612033576040517f08c379a000000000000000000000000000000000000000000000000000000000815260040161202a9061350c565b60405180910390fd5b505b505050505050565b600080600090507a184f03e93ff9f4daa797ed6e38ed64bf6a1f01000000000000000083106120c1577a184f03e93ff9f4daa797ed6e38ed64bf6a1f01000000000000000083816120b7577f4e487b7100000000000000000000000000000000000000000000000000000000600052601260045260246000fd5b0492506040810190505b6d04ee2d6d415b85acef81000000008310612124576d04ee2d6d415b85acef8100000000838161211a577f4e487b7100000000000000000000000000000000000000000000000000000000600052601260045260246000fd5b0492506020810190505b662386f26fc10000831061217957662386f26fc10000838161216f577f4e487b7100000000000000000000000000000000000000000000000000000000600052601260045260246000fd5b0492506010810190505b6305f5e10083106121c8576305f5e10083816121be577f4e487b7100000000000000000000000000000000000000000000000000000000600052601260045260246000fd5b0492506008810190505b6127108310612213576127108381612209577f4e487b7100000000000000000000000000000000000000000000000000000000600052601260045260246000fd5b0492506004810190505b6064831061225c5760648381612252577f4e487b7100000000000000000000000000000000000000000000000000000000600052601260045260246000fd5b0492506002810190505b600a831061226b576001810190505b80915050919050565b60606000600167ffffffffffffffff8111156122b9577f4e487b7100000000000000000000000000000000000000000000000000000000600052604160045260246000fd5b6040519080825280602002602001820160405280156122e75781602001602082028036833780820191505090505b5090508281600081518110612325577f4e487b7100000000000000000000000000000000000000000000000000000000600052603260045260246000fd5b60200260200101818152505080915050919050565b6123598473ffffffffffffffffffffffffffffffffffffffff166127bd565b15612519578373ffffffffffffffffffffffffffffffffffffffff1663f23a6e6187878686866040518663ffffffff1660e01b815260040161239f9594939291906133d3565b602060405180830381600087803b1580156123b957600080fd5b505af19250505080156123ea57506040513d601f19601f820116820180604052508101906123e79190612dfb565b60015b612490576123f6613af0565b806308c379a01415612453575061240b614003565b806124165750612455565b806040517f08c379a000000000000000000000000000000000000000000000000000000000815260040161244a91906134ca565b60405180910390fd5b505b6040517f08c379a0000000000000000000000000000000000000000000000000000000008152600401612487906136ec565b60405180910390fd5b63f23a6e6160e01b7bffffffffffffffffffffffffffffffffffffffffffffffffffffffff1916817bffffffffffffffffffffffffffffffffffffffffffffffffffffffff191614612517576040517f08c379a000000000000000000000000000000000000000000000000000000000815260040161250e9061350c565b60405180910390fd5b505b505050505050565b600073ffffffffffffffffffffffffffffffffffffffff168473ffffffffffffffffffffffffffffffffffffffff161415612591576040517f08c379a0000000000000000000000000000000000000000000000000000000008152600401612588906135ac565b60405180910390fd5b600061259b61144e565b905060006125a885612274565b905060006125b585612274565b90506125c5838989858589611e46565b600080600088815260200190815260200160002060008a73ffffffffffffffffffffffffffffffffffffffff1673ffffffffffffffffffffffffffffffffffffffff1681526020019081526020016000205490508581101561265c576040517f08c379a0000000000000000000000000000000000000000000000000000000008152600401612653906135ec565b60405180910390fd5b85810360008089815260200190815260200160002060008b73ffffffffffffffffffffffffffffffffffffffff1673ffffffffffffffffffffffffffffffffffffffff168152602001908152602001600020819055508560008089815260200190815260200160002060008a73ffffffffffffffffffffffffffffffffffffffff1673ffffffffffffffffffffffffffffffffffffffff168152602001908152602001600020600082825461271191906138ab565b925050819055508773ffffffffffffffffffffffffffffffffffffffff168973ffffffffffffffffffffffffffffffffffffffff168573ffffffffffffffffffffffffffffffffffffffff167fc3d58168c5ae7397731d063d5bbf3d657854427343f4c083240f7aacaa2d0f628a8a60405161278e929190613727565b60405180910390a46127a4848a8a86868a611e4e565b6127b2848a8a8a8a8a61233a565b505050505050505050565b6000808273ffffffffffffffffffffffffffffffffffffffff163b119050919050565b8280546127ec906139b7565b90600052602060002090601f01602090048101928261280e5760008555612855565b82601f1061282757805160ff1916838001178555612855565b82800160010185558215612855579182015b82811115612854578251825591602001919060010190612839565b5b5090506128629190612866565b5090565b5b8082111561287f576000816000905550600101612867565b5090565b600061289661289184613775565b613750565b905080838252602082019050828560208602820111156128b557600080fd5b60005b858110156128e557816128cb88826129d7565b8452602084019350602083019250506001810190506128b8565b5050509392505050565b60006129026128fd846137a1565b613750565b9050808382526020820190508285602086028201111561292157600080fd5b60005b8581101561295157816129378882612ae8565b845260208401935060208301925050600181019050612924565b5050509392505050565b600061296e612969846137cd565b613750565b90508281526020810184848401111561298657600080fd5b612991848285613975565b509392505050565b60006129ac6129a7846137fe565b613750565b9050828152602081018484840111156129c457600080fd5b6129cf848285613975565b509392505050565b6000813590506129e681614099565b92915050565b600082601f8301126129fd57600080fd5b8135612a0d848260208601612883565b91505092915050565b600082601f830112612a2757600080fd5b8135612a378482602086016128ef565b91505092915050565b600081359050612a4f816140b0565b92915050565b600081519050612a64816140b0565b92915050565b600081359050612a79816140c7565b92915050565b600081519050612a8e816140c7565b92915050565b600082601f830112612aa557600080fd5b8135612ab584826020860161295b565b91505092915050565b600082601f830112612acf57600080fd5b8135612adf848260208601612999565b91505092915050565b600081359050612af7816140de565b92915050565b600081519050612b0c816140de565b92915050565b600060208284031215612b2457600080fd5b6000612b32848285016129d7565b91505092915050565b60008060408385031215612b4e57600080fd5b6000612b5c858286016129d7565b9250506020612b6d858286016129d7565b9150509250929050565b600080600080600060a08688031215612b8f57600080fd5b6000612b9d888289016129d7565b9550506020612bae888289016129d7565b945050604086013567ffffffffffffffff811115612bcb57600080fd5b612bd788828901612a16565b935050606086013567ffffffffffffffff811115612bf457600080fd5b612c0088828901612a16565b925050608086013567ffffffffffffffff811115612c1d57600080fd5b612c2988828901612a94565b9150509295509295909350565b600080600080600060a08688031215612c4e57600080fd5b6000612c5c888289016129d7565b9550506020612c6d888289016129d7565b9450506040612c7e88828901612ae8565b9350506060612c8f88828901612ae8565b925050608086013567ffffffffffffffff811115612cac57600080fd5b612cb888828901612a94565b9150509295509295909350565b60008060408385031215612cd857600080fd5b6000612ce6858286016129d7565b9250506020612cf785828601612a40565b9150509250929050565b60008060408385031215612d1457600080fd5b6000612d22858286016129d7565b9250506020612d3385828601612ae8565b9150509250929050565b60008060408385031215612d5057600080fd5b600083013567ffffffffffffffff811115612d6a57600080fd5b612d76858286016129ec565b925050602083013567ffffffffffffffff811115612d9357600080fd5b612d9f85828601612a16565b9150509250929050565b600060208284031215612dbb57600080fd5b6000612dc984828501612a55565b91505092915050565b600060208284031215612de457600080fd5b6000612df284828501612a6a565b91505092915050565b600060208284031215612e0d57600080fd5b6000612e1b84828501612a7f565b91505092915050565b600060208284031215612e3657600080fd5b6000612e4484828501612ae8565b91505092915050565b600060208284031215612e5f57600080fd5b6000612e6d84828501612afd565b91505092915050565b60008060008060808587031215612e8c57600080fd5b6000612e9a87828801612ae8565b9450506020612eab87828801612ae8565b9350506040612ebc87828801612ae8565b925050606085013567ffffffffffffffff811115612ed957600080fd5b612ee587828801612abe565b91505092959194509250565b6000612efd83836132c1565b60208301905092915050565b612f1281613901565b82525050565b6000612f238261383f565b612f2d818561386d565b9350612f388361382f565b8060005b83811015612f69578151612f508882612ef1565b9750612f5b83613860565b925050600181019050612f3c565b5085935050505092915050565b612f7f81613913565b82525050565b6000612f908261384a565b612f9a818561387e565b9350612faa818560208601613984565b612fb381613b12565b840191505092915050565b6000612fc982613855565b612fd3818561388f565b9350612fe3818560208601613984565b612fec81613b12565b840191505092915050565b600061300282613855565b61300c81856138a0565b935061301c818560208601613984565b80840191505092915050565b600061303560208361388f565b915061304082613b30565b602082019050919050565b600061305860288361388f565b915061306382613b59565b604082019050919050565b600061307b60268361388f565b915061308682613ba8565b604082019050919050565b600061309e602a8361388f565b91506130a982613bf7565b604082019050919050565b60006130c1602e8361388f565b91506130cc82613c46565b604082019050919050565b60006130e460148361388f565b91506130ef82613c95565b602082019050919050565b600061310760258361388f565b915061311282613cbe565b604082019050919050565b600061312a60168361388f565b915061313582613d0d565b602082019050919050565b600061314d602a8361388f565b915061315882613d36565b604082019050919050565b60006131706005836138a0565b915061317b82613d85565b600582019050919050565b600061319360208361388f565b915061319e82613dae565b602082019050919050565b60006131b660238361388f565b91506131c182613dd7565b604082019050919050565b60006131d960298361388f565b91506131e482613e26565b604082019050919050565b60006131fc60298361388f565b915061320782613e75565b604082019050919050565b600061321f60158361388f565b915061322a82613ec4565b602082019050919050565b600061324260288361388f565b915061324d82613eed565b604082019050919050565b600061326560218361388f565b915061327082613f3c565b604082019050919050565b600061328860348361388f565b915061329382613f8b565b604082019050919050565b60006132ab6001836138a0565b91506132b682613fda565b600182019050919050565b6132ca8161396b565b82525050565b6132d98161396b565b82525050565b60006132eb8285612ff7565b91506132f68261329e565b91506133028284612ff7565b915061330d82613163565b91508190509392505050565b600060208201905061332e6000830184612f09565b92915050565b600060a0820190506133496000830188612f09565b6133566020830187612f09565b81810360408301526133688186612f18565b9050818103606083015261337c8185612f18565b905081810360808301526133908184612f85565b90509695505050505050565b60006060820190506133b16000830186612f09565b6133be6020830185612f09565b6133cb60408301846132d0565b949350505050565b600060a0820190506133e86000830188612f09565b6133f56020830187612f09565b61340260408301866132d0565b61340f60608301856132d0565b81810360808301526134218184612f85565b90509695505050505050565b60006040820190506134426000830185612f09565b61344f60208301846132d0565b9392505050565b600060208201905081810360008301526134708184612f18565b905092915050565b600060408201905081810360008301526134928185612f18565b905081810360208301526134a68184612f18565b90509392505050565b60006020820190506134c46000830184612f76565b92915050565b600060208201905081810360008301526134e48184612fbe565b905092915050565b6000602082019050818103600083015261350581613028565b9050919050565b600060208201905081810360008301526135258161304b565b9050919050565b600060208201905081810360008301526135458161306e565b9050919050565b6000602082019050818103600083015261356581613091565b9050919050565b60006020820190508181036000830152613585816130b4565b9050919050565b600060208201905081810360008301526135a5816130d7565b9050919050565b600060208201905081810360008301526135c5816130fa565b9050919050565b600060208201905081810360008301526135e58161311d565b9050919050565b6000602082019050818103600083015261360581613140565b9050919050565b6000602082019050818103600083015261362581613186565b9050919050565b60006020820190508181036000830152613645816131a9565b9050919050565b60006020820190508181036000830152613665816131cc565b9050919050565b60006020820190508181036000830152613685816131ef565b9050919050565b600060208201905081810360008301526136a581613212565b9050919050565b600060208201905081810360008301526136c581613235565b9050919050565b600060208201905081810360008301526136e581613258565b9050919050565b600060208201905081810360008301526137058161327b565b9050919050565b600060208201905061372160008301846132d0565b92915050565b600060408201905061373c60008301856132d0565b61374960208301846132d0565b9392505050565b600061375a61376b565b905061376682826139e9565b919050565b6000604051905090565b600067ffffffffffffffff8211156137905761378f613ac1565b5b602082029050602081019050919050565b600067ffffffffffffffff8211156137bc576137bb613ac1565b5b602082029050602081019050919050565b600067ffffffffffffffff8211156137e8576137e7613ac1565b5b6137f182613b12565b9050602081019050919050565b600067ffffffffffffffff82111561381957613818613ac1565b5b61382282613b12565b9050602081019050919050565b6000819050602082019050919050565b600081519050919050565b600081519050919050565b600081519050919050565b6000602082019050919050565b600082825260208201905092915050565b600082825260208201905092915050565b600082825260208201905092915050565b600081905092915050565b60006138b68261396b565b91506138c18361396b565b9250827fffffffffffffffffffffffffffffffffffffffffffffffffffffffffffffffff038211156138f6576138f5613a63565b5b828201905092915050565b600061390c8261394b565b9050919050565b60008115159050919050565b60007fffffffff0000000000000000000000000000000000000000000000000000000082169050919050565b600073ffffffffffffffffffffffffffffffffffffffff82169050919050565b6000819050919050565b82818337600083830152505050565b60005b838110156139a2578082015181840152602081019050613987565b838111156139b1576000848401525b50505050565b600060028204905060018216806139cf57607f821691505b602082108114156139e3576139e2613a92565b5b50919050565b6139f282613b12565b810181811067ffffffffffffffff82111715613a1157613a10613ac1565b5b80604052505050565b6000613a258261396b565b91507fffffffffffffffffffffffffffffffffffffffffffffffffffffffffffffffff821415613a5857613a57613a63565b5b600182019050919050565b7f4e487b7100000000000000000000000000000000000000000000000000000000600052601160045260246000fd5b7f4e487b7100000000000000000000000000000000000000000000000000000000600052602260045260246000fd5b7f4e487b7100000000000000000000000000000000000000000000000000000000600052604160045260246000fd5b600060033d1115613b0f5760046000803e613b0c600051613b23565b90505b90565b6000601f19601f8301169050919050565b60008160e01c9050919050565b7f536574207269676874207072696365207469206275792074686973206e667421600082015250565b7f455243313135353a204552433131353552656365697665722072656a6563746560008201527f6420746f6b656e73000000000000000000000000000000000000000000000000602082015250565b7f4f776e61626c653a206e6577206f776e657220697320746865207a65726f206160008201527f6464726573730000000000000000000000000000000000000000000000000000602082015250565b7f455243313135353a2061646472657373207a65726f206973206e6f742061207660008201527f616c6964206f776e657200000000000000000000000000000000000000000000602082015250565b7f455243313135353a2063616c6c6572206973206e6f7420746f6b656e206f776e60008201527f6572206f7220617070726f766564000000000000000000000000000000000000602082015250565b7f4e6f7468696e6720746f20776974686472617721000000000000000000000000600082015250565b7f455243313135353a207472616e7366657220746f20746865207a65726f20616460008201527f6472657373000000000000000000000000000000000000000000000000000000602082015250565b7f43616e277420627579206d6f726520746f6b656e732100000000000000000000600082015250565b7f455243313135353a20696e73756666696369656e742062616c616e636520666f60008201527f72207472616e7366657200000000000000000000000000000000000000000000602082015250565b7f2e6a736f6e000000000000000000000000000000000000000000000000000000600082015250565b7f4f776e61626c653a2063616c6c6572206973206e6f7420746865206f776e6572600082015250565b7f53657420526967687420707269636520746f206275792031303030303020425560008201527f5344210000000000000000000000000000000000000000000000000000000000602082015250565b7f455243313135353a2073657474696e6720617070726f76616c2073746174757360008201527f20666f722073656c660000000000000000000000000000000000000000000000602082015250565b7f455243313135353a206163636f756e747320616e6420696473206c656e67746860008201527f206d69736d617463680000000000000000000000000000000000000000000000602082015250565b7f546f6b656e20416c7265616479204d696e746564210000000000000000000000600082015250565b7f455243313135353a2069647320616e6420616d6f756e7473206c656e6774682060008201527f6d69736d61746368000000000000000000000000000000000000000000000000602082015250565b7f455243313135353a206d696e7420746f20746865207a65726f2061646472657360008201527f7300000000000000000000000000000000000000000000000000000000000000602082015250565b7f455243313135353a207472616e7366657220746f206e6f6e2d4552433131353560008201527f526563656976657220696d706c656d656e746572000000000000000000000000602082015250565b7f2f00000000000000000000000000000000000000000000000000000000000000600082015250565b600060443d101561401357614096565b61401b61376b565b60043d036004823e80513d602482011167ffffffffffffffff82111715614043575050614096565b808201805167ffffffffffffffff8111156140615750505050614096565b80602083010160043d03850181111561407e575050505050614096565b61408d826020018501866139e9565b82955050505050505b90565b6140a281613901565b81146140ad57600080fd5b50565b6140b981613913565b81146140c457600080fd5b50565b6140d08161391f565b81146140db57600080fd5b50565b6140e78161396b565b81146140f257600080fd5b5056fea2646970667358221220510d7565e817c54b0f55297044e111d8b1ecc4ece4cfb838191636e48ac0167764736f6c63430008040033",
  "linkReferences": {},
  "deployedLinkReferences": {}
}